{"abi":[{"type":"constructor","inputs":[{"name":"asset_","type":"address","internalType":"address"},{"name":"vault_","type":"address","internalType":"address"}],"stateMutability":"nonpayable"},{"type":"function","name":"adapterType","inputs":[],"outputs":[{"name":"","type":"string","internalType":"string"}],"stateMutability":"pure"},{"type":"function","name":"addYield","inputs":[{"name":"yieldAmount","type":"uint256","internalType":"uint256"}],"outputs":[],"stateMutability":"nonpayable"},{"type":"function","name":"asset","inputs":[],"outputs":[{"name":"","type":"address","internalType":"address"}],"stateMutability":"view"},{"type":"function","name":"deposit","inputs":[{"name":"assets","type":"uint256","internalType":"uint256"}],"outputs":[{"name":"","type":"uint256","internalType":"uint256"}],"stateMutability":"nonpayable"},{"type":"function","name":"estimatedAPY","inputs":[],"outputs":[{"name":"","type":"uint256","internalType":"uint256"}],"stateMutability":"pure"},{"type":"function","name":"harvest","inputs":[],"outputs":[{"name":"","type":"uint256","internalType":"uint256"}],"stateMutability":"nonpayable"},{"type":"function","name":"isActive","inputs":[],"outputs":[{"name":"","type":"bool","internalType":"bool"}],"stateMutability":"view"},{"type":"function","name":"name","inputs":[],"outputs":[{"name":"","type":"string","internalType":"string"}],"stateMutability":"pure"},{"type":"function","name":"pause","inputs":[],"outputs":[],"stateMutability":"nonpayable"},{"type":"function","name":"providerName","inputs":[],"outputs":[{"name":"","type":"string","internalType":"string"}],"stateMutability":"pure"},{"type":"function","name":"requiredLockPeriod","inputs":[],"outputs":[{"name":"","type":"uint256","internalType":"uint256"}],"stateMutability":"pure"},{"type":"function","name":"riskLevel","inputs":[],"outputs":[{"name":"","type":"uint8","internalType":"uint8"}],"stateMutability":"pure"},{"type":"function","name":"simulatedYield","inputs":[],"outputs":[{"name":"","type":"uint256","internalType":"uint256"}],"stateMutability":"view"},{"type":"function","name":"totalAssets","inputs":[],"outputs":[{"name":"","type":"uint256","internalType":"uint256"}],"stateMutability":"view"},{"type":"function","name":"unpause","inputs":[],"outputs":[],"stateMutability":"nonpayable"},{"type":"function","name":"vault","inputs":[],"outputs":[{"name":"","type":"address","internalType":"address"}],"stateMutability":"view"},{"type":"function","name":"withdraw","inputs":[{"name":"assets","type":"uint256","internalType":"uint256"},{"name":"recipient","type":"address","internalType":"address"}],"outputs":[{"name":"","type":"uint256","internalType":"uint256"}],"stateMutability":"nonpayable"},{"type":"event","name":"Deposited","inputs":[{"name":"assets","type":"uint256","indexed":false,"internalType":"uint256"},{"name":"deposited","type":"uint256","indexed":false,"internalType":"uint256"}],"anonymous":false},{"type":"event","name":"Harvested","inputs":[{"name":"harvested","type":"uint256","indexed":false,"internalType":"uint256"}],"anonymous":false},{"type":"event","name":"Paused","inputs":[],"anonymous":false},{"type":"event","name":"Unpaused","inputs":[],"anonymous":false},{"type":"event","name":"Withdrawn","inputs":[{"name":"assets","type":"uint256","indexed":false,"internalType":"uint256"},{"name":"withdrawn","type":"uint256","indexed":false,"internalType":"uint256"},{"name":"recipient","type":"address","indexed":true,"internalType":"address"}],"anonymous":false},{"type":"error","name":"SafeERC20FailedOperation","inputs":[{"name":"token","type":"address","internalType":"address"}]}],"bytecode":{"object":"0x6080604052348015600e575f5ffd5b50604051610878380380610878833981016040819052602b916074565b5f80546001600160a01b039384166001600160a01b0319918216179091556001805492909316911617905560a0565b80516001600160a01b0381168114606f575f5ffd5b919050565b5f5f604083850312156084575f5ffd5b608b83605a565b9150609760208401605a565b90509250929050565b6107cb806100ad5f395ff3fe608060405234801561000f575f5ffd5b5060043610610104575f3560e01c80633f4ba83a1161009e578063b6b55f251161006e578063b6b55f251461020b578063c8b2b5461461021e578063f19993d714610231578063f72c079114610239578063fbfa77cf14610259575f5ffd5b80633f4ba83a146101e25780634641257d146101ec5780638456cb59146101f4578063a62b33be146101fc575f5ffd5b806322f3e2d4116100d957806322f3e2d41461018b578063297c7d81146101a957806335b60054146101b257806338d52e0f146101b8575f5ffd5b8062dad7d414610108578062f714ce1461013a57806301e1d1141461015b57806306fdde0314610163575b5f5ffd5b6040805180820190915260048152634d6f636b60e01b60208201525b60405161013191906106d6565b60405180910390f35b61014d61014836600461070b565b61026c565b604051908152602001610131565b61014d6103c1565b60408051808201909152600c81526b26b7b1b59020b230b83a32b960a11b6020820152610124565b600154600160a01b900460ff16156040519015158152602001610131565b61014d60025481565b5f61014d565b5f546101ca906001600160a01b031681565b6040516001600160a01b039091168152602001610131565b6101ea6103d7565b005b61014d61040e565b6101ea610468565b60405160018152602001610131565b61014d610219366004610744565b6104a5565b6101ea61022c366004610744565b610547565b6101f461014d565b6040805180820190915260048152634465466960e01b6020820152610124565b6001546101ca906001600160a01b031681565b6001545f906001600160a01b031633146102c05760405162461bcd60e51b815260206004820152601060248201526f1353d0d2ce881bdb9b1e481d985d5b1d60821b60448201526064015b60405180910390fd5b6002546003546102d0919061076f565b83111561031f5760405162461bcd60e51b815260206004820152601a60248201527f4d4f434b3a20696e73756666696369656e742062616c616e636500000000000060448201526064016102b7565b82600254600354610330919061076f565b1161033b575f610356565b8260025460035461034c919061076f565b6103569190610782565b6003555f600281905554610374906001600160a01b03168385610591565b60408051848152602081018590526001600160a01b038416917f02ffa641367f5b897c0f8be81bce51f2ef055b4113d7a1e4fd082feea749bf52910160405180910390a250815b92915050565b5f6002546003546103d2919061076f565b905090565b6001805460ff60a01b191690556040517fa45f47fdea8a1efdd9029a5691c7f759c32b7c698632b563573e155625d16933905f90a1565b600280545f9182905560038054829190849061042b90849061076f565b90915550506040518181527f8e55ccfc9778ff8eba1646d765cf1982537ce0f9257054a17b48aad7452501839060200160405180910390a1919050565b6001805460ff60a01b1916600160a01b1790556040517f9e87fac88ff661f02d44f95383c817fece4bce600a3dab7a54406878b965e752905f90a1565b6001545f906001600160a01b031633146104f45760405162461bcd60e51b815260206004820152601060248201526f1353d0d2ce881bdb9b1e481d985d5b1d60821b60448201526064016102b7565b8160035f828254610505919061076f565b909155505060408051838152602081018490527f06da3309189fa49284f335d2c2bcb4cb0b8ad2a59ad92a9bdebeeb8f1ceba511910160405180910390a15090565b8060025f828254610558919061076f565b90915550505f54610574906001600160a01b03163330846105cb565b8060035f828254610585919061076f565b90915550505f60025550565b61059e8383836001610607565b6105c657604051635274afe760e01b81526001600160a01b03841660048201526024016102b7565b505050565b6105d9848484846001610669565b61060157604051635274afe760e01b81526001600160a01b03851660048201526024016102b7565b50505050565b60405163a9059cbb60e01b5f8181526001600160a01b038616600452602485905291602083604481808b5af1925060015f5114831661065d578383151615610651573d5f823e3d81fd5b5f873b113d1516831692505b60405250949350505050565b6040516323b872dd60e01b5f8181526001600160a01b038781166004528616602452604485905291602083606481808c5af1925060015f511483166106c55783831516156106b9573d5f823e3d81fd5b5f883b113d1516831692505b604052505f60605295945050505050565b602081525f82518060208401528060208501604085015e5f604082850101526040601f19601f83011684010191505092915050565b5f5f6040838503121561071c575f5ffd5b8235915060208301356001600160a01b0381168114610739575f5ffd5b809150509250929050565b5f60208284031215610754575f5ffd5b5035919050565b634e487b7160e01b5f52601160045260245ffd5b808201808211156103bb576103bb61075b565b818103818111156103bb576103bb61075b56fea2646970667358221220ca90aac8e651178b5440c9100b94171e7600c2c26f9926a33e198de7cc562f9664736f6c634300081c0033","linkReferences":{}},"methodIdentifiers":{"adapterType()":"f72c0791","addYield(uint256)":"c8b2b546","asset()":"38d52e0f","deposit(uint256)":"b6b55f25","estimatedAPY()":"f19993d7","harvest()":"4641257d","isActive()":"22f3e2d4","name()":"06fdde03","pause()":"8456cb59","providerName()":"00dad7d4","requiredLockPeriod()":"35b60054","riskLevel()":"a62b33be","simulatedYield()":"297c7d81","totalAssets()":"01e1d114","unpause()":"3f4ba83a","vault()":"fbfa77cf","withdraw(uint256,address)":"00f714ce"},"id":47}