{"abi":[{"type":"constructor","inputs":[{"name":"asset_","type":"address","internalType":"contract IERC20"},{"name":"name_","type":"string","internalType":"string"},{"name":"symbol_","type":"string","internalType":"string"},{"name":"governance_","type":"address","internalType":"address"},{"name":"adapterRegistry_","type":"address","internalType":"address"},{"name":"feeRecipient_","type":"address","internalType":"address"}],"stateMutability":"nonpayable"},{"type":"function","name":"acceptGovernance","inputs":[],"outputs":[],"stateMutability":"nonpayable"},{"type":"function","name":"activeAdapter","inputs":[],"outputs":[{"name":"","type":"address","internalType":"address"}],"stateMutability":"view"},{"type":"function","name":"adapterRegistry","inputs":[],"outputs":[{"name":"","type":"address","internalType":"address"}],"stateMutability":"view"},{"type":"function","name":"allowance","inputs":[{"name":"owner","type":"address","internalType":"address"},{"name":"spender","type":"address","internalType":"address"}],"outputs":[{"name":"","type":"uint256","internalType":"uint256"}],"stateMutability":"view"},{"type":"function","name":"approve","inputs":[{"name":"spender","type":"address","internalType":"address"},{"name":"value","type":"uint256","internalType":"uint256"}],"outputs":[{"name":"","type":"bool","internalType":"bool"}],"stateMutability":"nonpayable"},{"type":"function","name":"asset","inputs":[],"outputs":[{"name":"","type":"address","internalType":"address"}],"stateMutability":"view"},{"type":"function","name":"balanceOf","inputs":[{"name":"account","type":"address","internalType":"address"}],"outputs":[{"name":"","type":"uint256","internalType":"uint256"}],"stateMutability":"view"},{"type":"function","name":"collectFees","inputs":[],"outputs":[{"name":"feeShares","type":"uint256","internalType":"uint256"}],"stateMutability":"nonpayable"},{"type":"function","name":"convertToAssets","inputs":[{"name":"shares","type":"uint256","internalType":"uint256"}],"outputs":[{"name":"","type":"uint256","internalType":"uint256"}],"stateMutability":"view"},{"type":"function","name":"convertToShares","inputs":[{"name":"assets","type":"uint256","internalType":"uint256"}],"outputs":[{"name":"","type":"uint256","internalType":"uint256"}],"stateMutability":"view"},{"type":"function","name":"decimals","inputs":[],"outputs":[{"name":"","type":"uint8","internalType":"uint8"}],"stateMutability":"view"},{"type":"function","name":"deposit","inputs":[{"name":"assets","type":"uint256","internalType":"uint256"},{"name":"receiver","type":"address","internalType":"address"}],"outputs":[{"name":"","type":"uint256","internalType":"uint256"}],"stateMutability":"nonpayable"},{"type":"function","name":"emergencyShutdown","inputs":[],"outputs":[{"name":"","type":"bool","internalType":"bool"}],"stateMutability":"view"},{"type":"function","name":"feeRecipient","inputs":[],"outputs":[{"name":"","type":"address","internalType":"address"}],"stateMutability":"view"},{"type":"function","name":"governance","inputs":[],"outputs":[{"name":"","type":"address","internalType":"address"}],"stateMutability":"view"},{"type":"function","name":"lockPeriod","inputs":[],"outputs":[{"name":"","type":"uint256","internalType":"uint256"}],"stateMutability":"view"},{"type":"function","name":"lockedUntil","inputs":[{"name":"user","type":"address","internalType":"address"}],"outputs":[{"name":"","type":"uint256","internalType":"uint256"}],"stateMutability":"view"},{"type":"function","name":"managementFee","inputs":[],"outputs":[{"name":"","type":"uint256","internalType":"uint256"}],"stateMutability":"view"},{"type":"function","name":"maxDeposit","inputs":[{"name":"","type":"address","internalType":"address"}],"outputs":[{"name":"","type":"uint256","internalType":"uint256"}],"stateMutability":"view"},{"type":"function","name":"maxMint","inputs":[{"name":"","type":"address","internalType":"address"}],"outputs":[{"name":"","type":"uint256","internalType":"uint256"}],"stateMutability":"view"},{"type":"function","name":"maxRedeem","inputs":[{"name":"owner","type":"address","internalType":"address"}],"outputs":[{"name":"","type":"uint256","internalType":"uint256"}],"stateMutability":"view"},{"type":"function","name":"maxWithdraw","inputs":[{"name":"owner","type":"address","internalType":"address"}],"outputs":[{"name":"","type":"uint256","internalType":"uint256"}],"stateMutability":"view"},{"type":"function","name":"mint","inputs":[{"name":"shares","type":"uint256","internalType":"uint256"},{"name":"receiver","type":"address","internalType":"address"}],"outputs":[{"name":"","type":"uint256","internalType":"uint256"}],"stateMutability":"nonpayable"},{"type":"function","name":"name","inputs":[],"outputs":[{"name":"","type":"string","internalType":"string"}],"stateMutability":"view"},{"type":"function","name":"pendingGovernance","inputs":[],"outputs":[{"name":"","type":"address","internalType":"address"}],"stateMutability":"view"},{"type":"function","name":"performanceFee","inputs":[],"outputs":[{"name":"","type":"uint256","internalType":"uint256"}],"stateMutability":"view"},{"type":"function","name":"previewDeposit","inputs":[{"name":"assets","type":"uint256","internalType":"uint256"}],"outputs":[{"name":"","type":"uint256","internalType":"uint256"}],"stateMutability":"view"},{"type":"function","name":"previewMint","inputs":[{"name":"shares","type":"uint256","internalType":"uint256"}],"outputs":[{"name":"","type":"uint256","internalType":"uint256"}],"stateMutability":"view"},{"type":"function","name":"previewRedeem","inputs":[{"name":"shares","type":"uint256","internalType":"uint256"}],"outputs":[{"name":"","type":"uint256","internalType":"uint256"}],"stateMutability":"view"},{"type":"function","name":"previewWithdraw","inputs":[{"name":"assets","type":"uint256","internalType":"uint256"}],"outputs":[{"name":"","type":"uint256","internalType":"uint256"}],"stateMutability":"view"},{"type":"function","name":"proposeGovernance","inputs":[{"name":"newGovernance","type":"address","internalType":"address"}],"outputs":[],"stateMutability":"nonpayable"},{"type":"function","name":"redeem","inputs":[{"name":"shares","type":"uint256","internalType":"uint256"},{"name":"receiver","type":"address","internalType":"address"},{"name":"owner","type":"address","internalType":"address"}],"outputs":[{"name":"","type":"uint256","internalType":"uint256"}],"stateMutability":"nonpayable"},{"type":"function","name":"setAdapter","inputs":[{"name":"newAdapter","type":"address","internalType":"address"}],"outputs":[],"stateMutability":"nonpayable"},{"type":"function","name":"setEmergencyShutdown","inputs":[{"name":"active","type":"bool","internalType":"bool"}],"outputs":[],"stateMutability":"nonpayable"},{"type":"function","name":"setFeeRecipient","inputs":[{"name":"newRecipient","type":"address","internalType":"address"}],"outputs":[],"stateMutability":"nonpayable"},{"type":"function","name":"setLockPeriod","inputs":[{"name":"newPeriod","type":"uint256","internalType":"uint256"}],"outputs":[],"stateMutability":"nonpayable"},{"type":"function","name":"setManagementFee","inputs":[{"name":"newFee","type":"uint256","internalType":"uint256"}],"outputs":[],"stateMutability":"nonpayable"},{"type":"function","name":"setPerformanceFee","inputs":[{"name":"newFee","type":"uint256","internalType":"uint256"}],"outputs":[],"stateMutability":"nonpayable"},{"type":"function","name":"symbol","inputs":[],"outputs":[{"name":"","type":"string","internalType":"string"}],"stateMutability":"view"},{"type":"function","name":"totalAssets","inputs":[],"outputs":[{"name":"","type":"uint256","internalType":"uint256"}],"stateMutability":"view"},{"type":"function","name":"totalDebt","inputs":[],"outputs":[{"name":"","type":"uint256","internalType":"uint256"}],"stateMutability":"view"},{"type":"function","name":"totalSupply","inputs":[],"outputs":[{"name":"","type":"uint256","internalType":"uint256"}],"stateMutability":"view"},{"type":"function","name":"transfer","inputs":[{"name":"to","type":"address","internalType":"address"},{"name":"value","type":"uint256","internalType":"uint256"}],"outputs":[{"name":"","type":"bool","internalType":"bool"}],"stateMutability":"nonpayable"},{"type":"function","name":"transferFrom","inputs":[{"name":"from","type":"address","internalType":"address"},{"name":"to","type":"address","internalType":"address"},{"name":"value","type":"uint256","internalType":"uint256"}],"outputs":[{"name":"","type":"bool","internalType":"bool"}],"stateMutability":"nonpayable"},{"type":"function","name":"withdraw","inputs":[{"name":"assets","type":"uint256","internalType":"uint256"},{"name":"receiver","type":"address","internalType":"address"},{"name":"owner","type":"address","internalType":"address"}],"outputs":[{"name":"","type":"uint256","internalType":"uint256"}],"stateMutability":"nonpayable"},{"type":"event","name":"AdapterUpdated","inputs":[{"name":"oldAdapter","type":"address","indexed":true,"internalType":"address"},{"name":"newAdapter","type":"address","indexed":true,"internalType":"address"}],"anonymous":false},{"type":"event","name":"Approval","inputs":[{"name":"owner","type":"address","indexed":true,"internalType":"address"},{"name":"spender","type":"address","indexed":true,"internalType":"address"},{"name":"value","type":"uint256","indexed":false,"internalType":"uint256"}],"anonymous":false},{"type":"event","name":"Deposit","inputs":[{"name":"sender","type":"address","indexed":true,"internalType":"address"},{"name":"owner","type":"address","indexed":true,"internalType":"address"},{"name":"assets","type":"uint256","indexed":false,"internalType":"uint256"},{"name":"shares","type":"uint256","indexed":false,"internalType":"uint256"}],"anonymous":false},{"type":"event","name":"EmergencyShutdown","inputs":[{"name":"active","type":"bool","indexed":false,"internalType":"bool"}],"anonymous":false},{"type":"event","name":"FeeCollected","inputs":[{"name":"recipient","type":"address","indexed":true,"internalType":"address"},{"name":"feeShares","type":"uint256","indexed":false,"internalType":"uint256"},{"name":"feeAssets","type":"uint256","indexed":false,"internalType":"uint256"}],"anonymous":false},{"type":"event","name":"GovernanceAccepted","inputs":[{"name":"newGovernance","type":"address","indexed":true,"internalType":"address"}],"anonymous":false},{"type":"event","name":"GovernanceProposed","inputs":[{"name":"currentGovernance","type":"address","indexed":true,"internalType":"address"},{"name":"pendingGovernance","type":"address","indexed":true,"internalType":"address"}],"anonymous":false},{"type":"event","name":"LockPeriodUpdated","inputs":[{"name":"oldPeriod","type":"uint256","indexed":false,"internalType":"uint256"},{"name":"newPeriod","type":"uint256","indexed":false,"internalType":"uint256"}],"anonymous":false},{"type":"event","name":"Transfer","inputs":[{"name":"from","type":"address","indexed":true,"internalType":"address"},{"name":"to","type":"address","indexed":true,"internalType":"address"},{"name":"value","type":"uint256","indexed":false,"internalType":"uint256"}],"anonymous":false},{"type":"event","name":"Withdraw","inputs":[{"name":"sender","type":"address","indexed":true,"internalType":"address"},{"name":"receiver","type":"address","indexed":true,"internalType":"address"},{"name":"owner","type":"address","indexed":true,"internalType":"address"},{"name":"assets","type":"uint256","indexed":false,"internalType":"uint256"},{"name":"shares","type":"uint256","indexed":false,"internalType":"uint256"}],"anonymous":false},{"type":"error","name":"ERC20InsufficientAllowance","inputs":[{"name":"spender","type":"address","internalType":"address"},{"name":"allowance","type":"uint256","internalType":"uint256"},{"name":"needed","type":"uint256","internalType":"uint256"}]},{"type":"error","name":"ERC20InsufficientBalance","inputs":[{"name":"sender","type":"address","internalType":"address"},{"name":"balance","type":"uint256","internalType":"uint256"},{"name":"needed","type":"uint256","internalType":"uint256"}]},{"type":"error","name":"ERC20InvalidApprover","inputs":[{"name":"approver","type":"address","internalType":"address"}]},{"type":"error","name":"ERC20InvalidReceiver","inputs":[{"name":"receiver","type":"address","internalType":"address"}]},{"type":"error","name":"ERC20InvalidSender","inputs":[{"name":"sender","type":"address","internalType":"address"}]},{"type":"error","name":"ERC20InvalidSpender","inputs":[{"name":"spender","type":"address","internalType":"address"}]},{"type":"error","name":"ERC4626ExceededMaxDeposit","inputs":[{"name":"receiver","type":"address","internalType":"address"},{"name":"assets","type":"uint256","internalType":"uint256"},{"name":"max","type":"uint256","internalType":"uint256"}]},{"type":"error","name":"ERC4626ExceededMaxMint","inputs":[{"name":"receiver","type":"address","internalType":"address"},{"name":"shares","type":"uint256","internalType":"uint256"},{"name":"max","type":"uint256","internalType":"uint256"}]},{"type":"error","name":"ERC4626ExceededMaxRedeem","inputs":[{"name":"owner","type":"address","internalType":"address"},{"name":"shares","type":"uint256","internalType":"uint256"},{"name":"max","type":"uint256","internalType":"uint256"}]},{"type":"error","name":"ERC4626ExceededMaxWithdraw","inputs":[{"name":"owner","type":"address","internalType":"address"},{"name":"assets","type":"uint256","internalType":"uint256"},{"name":"max","type":"uint256","internalType":"uint256"}]},{"type":"error","name":"ReentrancyGuardReentrantCall","inputs":[]},{"type":"error","name":"SafeERC20FailedOperation","inputs":[{"name":"token","type":"address","internalType":"address"}]}],"bytecode":{"object":"0x60c060405234801561000f575f5ffd5b506040516127df3803806127df83398101604081905261002e91610308565b858585600361003d838261043d565b50600461004a828261043d565b5050505f5f61005e836101a260201b60201c565b915091508161006e576012610070565b805b60ff1660a05250506001600160a01b031660805260017f9b779b17422d0df92223018b32b4d1fa46e071723d6817e2486d003becc55f00556001600160a01b0383166101035760405162461bcd60e51b815260206004820152601660248201527f5641554c543a207a65726f20676f7665726e616e63650000000000000000000060448201526064015b60405180910390fd5b6001600160a01b0381166101595760405162461bcd60e51b815260206004820152601960248201527f5641554c543a207a65726f2066656520726563697069656e740000000000000060448201526064016100fa565b600580546001600160a01b039485166001600160a01b0319918216179091556008805493851693821693909317909255600c8054919093169116179055505042600e55506104f7565b5f80806101ae60405190565b6040805160048152602481019091526020810180516001600160e01b0390811663313ce56760e01b179091529192505f9182916101ee9188919061023316565b5090925090506101fd83604052565b81801561020b575060203d10155b8015610218575060ff8111155b610223575f5f610227565b6001815b94509450505050915091565b5f5f5f60405f855160208701885afa92505f51915060205190509250925092565b6001600160a01b0381168114610268575f5ffd5b50565b634e487b7160e01b5f52604160045260245ffd5b5f82601f83011261028e575f5ffd5b81516001600160401b038111156102a7576102a761026b565b604051601f8201601f19908116603f011681016001600160401b03811182821017156102d5576102d561026b565b6040528181528382016020018510156102ec575f5ffd5b8160208501602083015e5f918101602001919091529392505050565b5f5f5f5f5f5f60c0878903121561031d575f5ffd5b865161032881610254565b60208801519096506001600160401b03811115610343575f5ffd5b61034f89828a0161027f565b604089015190965090506001600160401b0381111561036c575f5ffd5b61037889828a0161027f565b945050606087015161038981610254565b608088015190935061039a81610254565b60a08801519092506103ab81610254565b809150509295509295509295565b600181811c908216806103cd57607f821691505b6020821081036103eb57634e487b7160e01b5f52602260045260245ffd5b50919050565b601f82111561043857805f5260205f20601f840160051c810160208510156104165750805b601f840160051c820191505b81811015610435575f8155600101610422565b50505b505050565b81516001600160401b038111156104565761045661026b565b61046a8161046484546103b9565b846103f1565b6020601f82116001811461049c575f83156104855750848201515b5f19600385901b1c1916600184901b178455610435565b5f84815260208120601f198516915b828110156104cb57878501518255602094850194600190920191016104ab565b50848210156104e857868401515f19600387901b60f8161c191681555b50505050600190811b01905550565b60805160a05161229d6105425f395f610a3e01525f818161035b01528181610670015281816112e70152818161138d01528181611a8701528181611d3c0152611d9c015261229d5ff3fe608060405234801561000f575f5ffd5b5060043610610276575f3560e01c80638778878211610156578063c373a08e116100ca578063dd62ed3e11610084578063dd62ed3e14610564578063e74b981b1461059c578063ef8b30f714610523578063f39c38a0146105af578063fc7b9c18146105c2578063fe56e232146105ca575f5ffd5b8063c373a08e14610510578063c63d75b61461039c578063c6e6f59214610523578063c879657214610536578063ce96cb771461053e578063d905777e14610551575f5ffd5b8063a6f7f5d61161011b578063a6f7f5d6146104a8578063a9059cbb146104b1578063ab1da79c146104c4578063b3d7f6b9146104d7578063b460af94146104ea578063ba087652146104fd575f5ffd5b8063877887821461044957806394bf804d1461045257806395d89b41146104655780639bc289f11461046d578063a5b7d77914610495575f5ffd5b806338d52e0f116101ed57806350b5c16a116101b257806350b5c16a146103c25780635aa6e675146103d55780636e553f65146103e857806370897b23146103fb57806370a082311461040e578063779972da14610436575f5ffd5b806338d52e0f146103595780633fd8b02f14610393578063402d267d1461039c57806346904840146103af5780634cdad506146102aa575f5ffd5b806314c644021161023e57806314c64402146102f357806318160ddd14610308578063238efcbc1461031057806323b872dd14610318578063313ce5671461032b5780633403c2fc14610345575f5ffd5b806301e1d1141461027a57806306fdde031461029557806307a2d13a146102aa578063095ea7b3146102bd5780630a28a477146102e0575b5f5ffd5b6102826105dd565b6040519081526020015b60405180910390f35b61029d610707565b60405161028c9190611e65565b6102826102b8366004611e9a565b610797565b6102d06102cb366004611ecc565b6107a8565b604051901515815260200161028c565b6102826102ee366004611e9a565b6107bf565b610306610301366004611ef4565b6107cb565b005b600254610282565b610306610959565b6102d0610326366004611f13565b610a11565b610333610a36565b60405160ff909116815260200161028c565b600c546102d090600160a01b900460ff1681565b7f00000000000000000000000000000000000000000000000000000000000000005b6040516001600160a01b03909116815260200161028c565b61028260095481565b6102826103aa366004611f4d565b610a67565b600c5461037b906001600160a01b031681565b60085461037b906001600160a01b031681565b60055461037b906001600160a01b031681565b6102826103f6366004611f66565b610a8a565b610306610409366004611e9a565b610ab5565b61028261041c366004611f4d565b6001600160a01b03165f9081526020819052604090205490565b610306610444366004611e9a565b610b2c565b610282600a5481565b610282610460366004611f66565b610b97565b61029d610baa565b61028261047b366004611f4d565b6001600160a01b03165f908152600f602052604090205490565b60075461037b906001600160a01b031681565b610282600b5481565b6102d06104bf366004611ecc565b610bb9565b6103066104d2366004611f4d565b610bc6565b6102826104e5366004611e9a565b610d53565b6102826104f8366004611f90565b610d5f565b61028261050b366004611f90565b610d8b565b61030661051e366004611f4d565b610d9f565b610282610531366004611e9a565b610e66565b610282610e71565b61028261054c366004611f4d565b610fa1565b61028261055f366004611f4d565b610faa565b610282610572366004611fc9565b6001600160a01b039182165f90815260016020908152604080832093909416825291909152205490565b6103066105aa366004611f4d565b610fc7565b60065461037b906001600160a01b031681565b600d54610282565b6103066105d8366004611e9a565b61105f565b6007545f9081906001600160a01b03166105f7575f61066b565b60075f9054906101000a90046001600160a01b03166001600160a01b03166301e1d1146040518163ffffffff1660e01b8152600401602060405180830381865afa158015610647573d5f5f3e3d5ffd5b505050506040513d601f19601f8201168201806040525081019061066b9190611ff1565b9050807f00000000000000000000000000000000000000000000000000000000000000006040516370a0823160e01b81523060048201526001600160a01b0391909116906370a0823190602401602060405180830381865afa1580156106d3573d5f5f3e3d5ffd5b505050506040513d601f19601f820116820180604052508101906106f79190611ff1565b610701919061201c565b91505090565b6060600380546107169061202f565b80601f01602080910402602001604051908101604052809291908181526020018280546107429061202f565b801561078d5780601f106107645761010080835404028352916020019161078d565b820191905f5260205f20905b81548152906001019060200180831161077057829003601f168201915b5050505050905090565b5f6107a2825f6110d6565b92915050565b5f336107b581858561110f565b5060019392505050565b5f6107a2826001611121565b6005546001600160a01b031633146107fe5760405162461bcd60e51b81526004016107f590612067565b60405180910390fd5b600c805482158015600160a01b0260ff60a01b1990921691909117909155819061083257506007546001600160a01b031615155b1561092157600754604080516278744560e21b815290515f926001600160a01b0316916301e1d1149160048083019260209291908290030181865afa15801561087d573d5f5f3e3d5ffd5b505050506040513d601f19601f820116820180604052508101906108a19190611ff1565b9050801561091f57600754604051627b8a6760e11b8152600481018390523060248201526001600160a01b039091169062f714ce906044016020604051808303815f875af11580156108f5573d5f5f3e3d5ffd5b505050506040513d601f19601f820116820180604052508101906109199190611ff1565b505f600d555b505b60405181151581527fba40372a3a724dca3c57156128ef1e896724b65b37a17f190b1ad5de68f3a4f39060200160405180910390a150565b6006546001600160a01b031633146109b35760405162461bcd60e51b815260206004820152601d60248201527f5641554c543a206e6f742070656e64696e6720676f7665726e616e636500000060448201526064016107f5565b6006546040516001600160a01b03909116907fb1476cf38ac36ee528f1ad1ae81bdb46de8807d42475e16078426bce60013961905f90a260068054600580546001600160a01b03199081166001600160a01b03841617909155169055565b5f33610a1e858285611151565b610a298585856111ba565b60019150505b9392505050565b5f610a6260097f0000000000000000000000000000000000000000000000000000000000000000612096565b905090565b600c545f90600160a01b900460ff1615610a8257505f919050565b505f19919050565b5f610a93611217565b610a9d8383611232565b90506107a260015f5160206122485f395f51905f5255565b6005546001600160a01b03163314610adf5760405162461bcd60e51b81526004016107f590612067565b610bb8811115610b275760405162461bcd60e51b81526020600482015260136024820152720ac82aa98a87440cccaca40e8dede40d0d2ced606b1b60448201526064016107f5565b600a55565b6005546001600160a01b03163314610b565760405162461bcd60e51b81526004016107f590612067565b60095460408051918252602082018390527f5dd7b309b7bc5010d9c96159ee535a428121d6803cb847792402fffccaf1569a910160405180910390a1600955565b5f610ba0611217565b610a9d8383611286565b6060600480546107169061202f565b5f336107b58185856111ba565b6005546001600160a01b03163314610bf05760405162461bcd60e51b81526004016107f590612067565b6007546001600160a01b031615610ceb57600754604080516278744560e21b815290515f926001600160a01b0316916301e1d1149160048083019260209291908290030181865afa158015610c47573d5f5f3e3d5ffd5b505050506040513d601f19601f82011682018060405250810190610c6b9190611ff1565b90508015610ce557600754604051627b8a6760e11b8152600481018390523060248201526001600160a01b039091169062f714ce906044016020604051808303815f875af1158015610cbf573d5f5f3e3d5ffd5b505050506040513d601f19601f82011682018060405250810190610ce39190611ff1565b505b505f600d555b600780546001600160a01b038381166001600160a01b0319831681179093556040519116919082907fdf69d4ddaf9fd7d35c9293931e2b3f205a06dc3b5b9ca4bef1f1d7c1d4202848905f90a36001600160a01b03821615610d4f57610d4f6112d2565b5050565b5f6107a28260016110d6565b5f610d68611217565b610d73848484611442565b9050610a2f60015f5160206122485f395f51905f5255565b5f610d94611217565b610d73848484611498565b6005546001600160a01b03163314610dc95760405162461bcd60e51b81526004016107f590612067565b6001600160a01b038116610e155760405162461bcd60e51b81526020600482015260136024820152725641554c543a207a65726f206164647265737360681b60448201526064016107f5565b600680546001600160a01b0319166001600160a01b03838116918217909255600554604051919216907f7c4d96924f12913ea4497be340c588e727913bc71595eb2f44cdb892bdc6f337905f90a350565b5f6107a2825f611121565b5f600b545f1480610e8b5750600c546001600160a01b0316155b15610e9557505f90565b5f600e5442610ea491906120af565b9050805f03610eb4575f91505090565b5f610ebd6105dd565b90505f610ec960025490565b9050811580610ed6575080155b15610ee857505042600e55505f919050565b5f610ef96301e187e06127106120c2565b84600b5485610f0891906120c2565b610f1291906120c2565b610f1c91906120ed565b90508015610f9457610f2d81610e66565b94508415610f9457600c54610f4b906001600160a01b0316866114e5565b600c5460408051878152602081018490526001600160a01b03909216917f108516ddcf5ba43cea6bb2cd5ff6d59ac196c1c86ccb9178332b9dd72d1ca561910160405180910390a25b505042600e555090919050565b5f6107a26102b8835b6001600160a01b0381165f908152602081905260408120546107a2565b6005546001600160a01b03163314610ff15760405162461bcd60e51b81526004016107f590612067565b6001600160a01b03811661103d5760405162461bcd60e51b81526020600482015260136024820152725641554c543a207a65726f206164647265737360681b60448201526064016107f5565b600c80546001600160a01b0319166001600160a01b0392909216919091179055565b6005546001600160a01b031633146110895760405162461bcd60e51b81526004016107f590612067565b6101f48111156110d15760405162461bcd60e51b81526020600482015260136024820152720ac82aa98a87440cccaca40e8dede40d0d2ced606b1b60448201526064016107f5565b600b55565b5f610a2f6110e26105dd565b6110ed90600161201c565b6110f96009600a6121e3565b600254611106919061201c565b85919085611519565b61111c838383600161155b565b505050565b5f610a2f6111316009600a6121e3565b60025461113e919061201c565b6111466105dd565b61110690600161201c565b6001600160a01b038381165f908152600160209081526040808320938616835292905220545f198110156111b457818110156111a657828183604051637dc7a0d960e11b81526004016107f5939291906121f1565b6111b484848484035f61155b565b50505050565b6001600160a01b0383166111e357604051634b637e8f60e11b81525f60048201526024016107f5565b6001600160a01b03821661120c5760405163ec442f0560e01b81525f60048201526024016107f5565b61111c83838361162d565b61121f611740565b60025f5160206122485f395f51905f5255565b5f5f61123d83610a67565b90508084111561126657828482604051633c8097d960e11b81526004016107f5939291906121f1565b5f61127085610e66565b905061127e33858784611771565b949350505050565b5f5f61129183610a67565b9050808411156112ba5782848260405163284ff66760e01b81526004016107f5939291906121f1565b5f6112c485610d53565b905061127e33858388611771565b6007546001600160a01b03166112e457565b5f7f00000000000000000000000000000000000000000000000000000000000000006040516370a0823160e01b81523060048201526001600160a01b0391909116906370a0823190602401602060405180830381865afa15801561134a573d5f5f3e3d5ffd5b505050506040513d601f19601f8201168201806040525081019061136e9190611ff1565b9050805f0361137a5750565b6007546113bc906001600160a01b0316827f00000000000000000000000000000000000000000000000000000000000000006001600160a01b03169190611835565b60075460405163b6b55f2560e01b8152600481018390526001600160a01b039091169063b6b55f25906024016020604051808303815f875af1158015611404573d5f5f3e3d5ffd5b505050506040513d601f19601f820116820180604052508101906114289190611ff1565b5080600d5f82825461143a919061201c565b909155505050565b5f5f61144d83610fa1565b90508085111561147657828582604051633fa733bb60e21b81526004016107f5939291906121f1565b5f611480866107bf565b905061148f338686898561186a565b95945050505050565b5f5f6114a383610faa565b9050808511156114cc57828582604051632e52afbb60e21b81526004016107f5939291906121f1565b5f6114d686610797565b905061148f338686848a61186a565b6001600160a01b03821661150e5760405163ec442f0560e01b81525f60048201526024016107f5565b610d4f5f838361162d565b5f611546611526836118e4565b801561154157505f848061153c5761153c6120d9565b868809115b151590565b611551868686611910565b61148f919061201c565b6001600160a01b0384166115845760405163e602df0560e01b81525f60048201526024016107f5565b6001600160a01b0383166115ad57604051634a1406b160e11b81525f60048201526024016107f5565b6001600160a01b038085165f90815260016020908152604080832093871683529290522082905580156111b457826001600160a01b0316846001600160a01b03167f8c5be1e5ebec7d5bd14f71427d1e84f3dd0314c0f7b2291e5b200ac8c7c3b9258460405161161f91815260200190565b60405180910390a350505050565b6001600160a01b038316611657578060025f82825461164c919061201c565b909155506116b49050565b6001600160a01b0383165f90815260208190526040902054818110156116965783818360405163391434e360e21b81526004016107f5939291906121f1565b6001600160a01b0384165f9081526020819052604090209082900390555b6001600160a01b0382166116d0576002805482900390556116ee565b6001600160a01b0382165f9081526020819052604090208054820190555b816001600160a01b0316836001600160a01b03167fddf252ad1be2c89b69c2b068fc378daa952ba7f163c4a11628f55a4df523b3ef8360405161173391815260200190565b60405180910390a3505050565b5f5160206122485f395f51905f525460020361176f57604051633ee5aeb560e01b815260040160405180910390fd5b565b600c54600160a01b900460ff16156117cb5760405162461bcd60e51b815260206004820152601960248201527f5641554c543a20656d657267656e63792073687574646f776e0000000000000060448201526064016107f5565b6117d7848484846119c0565b6009541561182d575f600954426117ee919061201c565b6001600160a01b0385165f908152600f602052604090205490915081111561182b576001600160a01b0384165f908152600f602052604090208190555b505b6111b46112d2565b6118428383836001611a22565b61111c57604051635274afe760e01b81526001600160a01b03841660048201526024016107f5565b6001600160a01b0383165f908152600f60205260409020544210156118c75760405162461bcd60e51b815260206004820152601360248201527215905553150e881cdd1a5b1b081b1bd8dad959606a1b60448201526064016107f5565b6118d082611a84565b6118dd8585858585611c6b565b5050505050565b5f60028260038111156118f9576118f9612212565b6119039190612226565b60ff166001149050919050565b5f5f5f61191d8686611d0a565b91509150815f0361194157838181611937576119376120d9565b0492505050610a2f565b818411611958576119586003851502601118611d26565b5f848688095f868103871696879004966002600389028118808a02820302808a02820302808a02820302808a02820302808a02820302808a02909103029181900381900460010185841190960395909502919093039390930492909217029150509392505050565b6119ca8483611d37565b6119d483826114e5565b826001600160a01b0316846001600160a01b03167fdcbc1c05240f31ff3ad067ef1ee35ce4997762752e3a095284754544f4c709d7848460405161161f929190918252602082015260400190565b60405163a9059cbb60e01b5f8181526001600160a01b038616600452602485905291602083604481808b5af1925060015f51148316611a78578383151615611a6c573d5f823e3d81fd5b5f873b113d1516831692505b60405250949350505050565b5f7f00000000000000000000000000000000000000000000000000000000000000006040516370a0823160e01b81523060048201526001600160a01b0391909116906370a0823190602401602060405180830381865afa158015611aea573d5f5f3e3d5ffd5b505050506040513d601f19601f82011682018060405250810190611b0e9190611ff1565b9050818110611b1b575050565b6007546001600160a01b0316611b2f575050565b5f611b3a82846120af565b90505f60075f9054906101000a90046001600160a01b03166001600160a01b03166301e1d1146040518163ffffffff1660e01b8152600401602060405180830381865afa158015611b8d573d5f5f3e3d5ffd5b505050506040513d601f19601f82011682018060405250810190611bb19190611ff1565b90505f818311611bc15782611bc3565b815b9050805f03611bd3575050505050565b600754604051627b8a6760e11b8152600481018390523060248201526001600160a01b039091169062f714ce906044016020604051808303815f875af1158015611c1f573d5f5f3e3d5ffd5b505050506040513d601f19601f82011682018060405250810190611c439190611ff1565b5080600d5411611c53575f611c61565b80600d54611c6191906120af565b600d555050505050565b826001600160a01b0316856001600160a01b031614611c8f57611c8f838683611151565b611c998382611d63565b611ca38483611d97565b826001600160a01b0316846001600160a01b0316866001600160a01b03167ffbde797d201c681b91056529119e0b02407c7bb96a4a2c75c01fc9667232c8db8585604051611cfb929190918252602082015260400190565b60405180910390a45050505050565b5f805f1983850993909202808410938190039390930393915050565b634e487b715f52806020526024601cfd5b610d4f7f0000000000000000000000000000000000000000000000000000000000000000833084611dc2565b6001600160a01b038216611d8c57604051634b637e8f60e11b81525f60048201526024016107f5565b610d4f825f8361162d565b610d4f7f00000000000000000000000000000000000000000000000000000000000000008383611835565b611dd0848484846001611df8565b6111b457604051635274afe760e01b81526001600160a01b03851660048201526024016107f5565b6040516323b872dd60e01b5f8181526001600160a01b038781166004528616602452604485905291602083606481808c5af1925060015f51148316611e54578383151615611e48573d5f823e3d81fd5b5f883b113d1516831692505b604052505f60605295945050505050565b602081525f82518060208401528060208501604085015e5f604082850101526040601f19601f83011684010191505092915050565b5f60208284031215611eaa575f5ffd5b5035919050565b80356001600160a01b0381168114611ec7575f5ffd5b919050565b5f5f60408385031215611edd575f5ffd5b611ee683611eb1565b946020939093013593505050565b5f60208284031215611f04575f5ffd5b81358015158114610a2f575f5ffd5b5f5f5f60608486031215611f25575f5ffd5b611f2e84611eb1565b9250611f3c60208501611eb1565b929592945050506040919091013590565b5f60208284031215611f5d575f5ffd5b610a2f82611eb1565b5f5f60408385031215611f77575f5ffd5b82359150611f8760208401611eb1565b90509250929050565b5f5f5f60608486031215611fa2575f5ffd5b83359250611fb260208501611eb1565b9150611fc060408501611eb1565b90509250925092565b5f5f60408385031215611fda575f5ffd5b611fe383611eb1565b9150611f8760208401611eb1565b5f60208284031215612001575f5ffd5b5051919050565b634e487b7160e01b5f52601160045260245ffd5b808201808211156107a2576107a2612008565b600181811c9082168061204357607f821691505b60208210810361206157634e487b7160e01b5f52602260045260245ffd5b50919050565b6020808252601590820152745641554c543a206e6f7420676f7665726e616e636560581b604082015260600190565b60ff81811683821601908111156107a2576107a2612008565b818103818111156107a2576107a2612008565b80820281158282048414176107a2576107a2612008565b634e487b7160e01b5f52601260045260245ffd5b5f826120fb576120fb6120d9565b500490565b6001815b600184111561213b5780850481111561211f5761211f612008565b600184161561212d57908102905b60019390931c928002612104565b935093915050565b5f82612151575060016107a2565b8161215d57505f6107a2565b8160018114612173576002811461217d57612199565b60019150506107a2565b60ff84111561218e5761218e612008565b50506001821b6107a2565b5060208310610133831016604e8410600b84101617156121bc575081810a6107a2565b6121c85f198484612100565b805f19048211156121db576121db612008565b029392505050565b5f610a2f60ff841683612143565b6001600160a01b039390931683526020830191909152604082015260600190565b634e487b7160e01b5f52602160045260245ffd5b5f60ff831680612238576122386120d9565b8060ff8416069150509291505056fe9b779b17422d0df92223018b32b4d1fa46e071723d6817e2486d003becc55f00a2646970667358221220a72fc4090240801ea813576424094d70722e45b528a447cab0bf47ff70f4e01464736f6c634300081c0033","linkReferences":{}},"methodIdentifiers":{"acceptGovernance()":"238efcbc","activeAdapter()":"a5b7d779","adapterRegistry()":"50b5c16a","allowance(address,address)":"dd62ed3e","approve(address,uint256)":"095ea7b3","asset()":"38d52e0f","balanceOf(address)":"70a08231","collectFees()":"c8796572","convertToAssets(uint256)":"07a2d13a","convertToShares(uint256)":"c6e6f592","decimals()":"313ce567","deposit(uint256,address)":"6e553f65","emergencyShutdown()":"3403c2fc","feeRecipient()":"46904840","governance()":"5aa6e675","lockPeriod()":"3fd8b02f","lockedUntil(address)":"9bc289f1","managementFee()":"a6f7f5d6","maxDeposit(address)":"402d267d","maxMint(address)":"c63d75b6","maxRedeem(address)":"d905777e","maxWithdraw(address)":"ce96cb77","mint(uint256,address)":"94bf804d","name()":"06fdde03","pendingGovernance()":"f39c38a0","performanceFee()":"87788782","previewDeposit(uint256)":"ef8b30f7","previewMint(uint256)":"b3d7f6b9","previewRedeem(uint256)":"4cdad506","previewWithdraw(uint256)":"0a28a477","proposeGovernance(address)":"c373a08e","redeem(uint256,address,address)":"ba087652","setAdapter(address)":"ab1da79c","setEmergencyShutdown(bool)":"14c64402","setFeeRecipient(address)":"e74b981b","setLockPeriod(uint256)":"779972da","setManagementFee(uint256)":"fe56e232","setPerformanceFee(uint256)":"70897b23","symbol()":"95d89b41","totalAssets()":"01e1d114","totalDebt()":"fc7b9c18","totalSupply()":"18160ddd","transfer(address,uint256)":"a9059cbb","transferFrom(address,address,uint256)":"23b872dd","withdraw(uint256,address,address)":"b460af94"},"id":40}