{"abi":[{"type":"constructor","inputs":[{"name":"asset_","type":"address","internalType":"address"},{"name":"aavePool_","type":"address","internalType":"address"},{"name":"aToken_","type":"address","internalType":"address"},{"name":"vault_","type":"address","internalType":"address"},{"name":"governance_","type":"address","internalType":"address"},{"name":"referralCode_","type":"uint16","internalType":"uint16"}],"stateMutability":"nonpayable"},{"type":"function","name":"aToken","inputs":[],"outputs":[{"name":"","type":"address","internalType":"contract IERC20"}],"stateMutability":"view"},{"type":"function","name":"aavePool","inputs":[],"outputs":[{"name":"","type":"address","internalType":"contract IAavePool"}],"stateMutability":"view"},{"type":"function","name":"adapterType","inputs":[],"outputs":[{"name":"","type":"string","internalType":"string"}],"stateMutability":"pure"},{"type":"function","name":"asset","inputs":[],"outputs":[{"name":"","type":"address","internalType":"address"}],"stateMutability":"view"},{"type":"function","name":"deposit","inputs":[{"name":"assets","type":"uint256","internalType":"uint256"}],"outputs":[{"name":"deposited","type":"uint256","internalType":"uint256"}],"stateMutability":"nonpayable"},{"type":"function","name":"estimatedAPY","inputs":[],"outputs":[{"name":"","type":"uint256","internalType":"uint256"}],"stateMutability":"view"},{"type":"function","name":"governance","inputs":[],"outputs":[{"name":"","type":"address","internalType":"address"}],"stateMutability":"view"},{"type":"function","name":"harvest","inputs":[],"outputs":[{"name":"","type":"uint256","internalType":"uint256"}],"stateMutability":"nonpayable"},{"type":"function","name":"isActive","inputs":[],"outputs":[{"name":"","type":"bool","internalType":"bool"}],"stateMutability":"view"},{"type":"function","name":"name","inputs":[],"outputs":[{"name":"","type":"string","internalType":"string"}],"stateMutability":"pure"},{"type":"function","name":"pause","inputs":[],"outputs":[],"stateMutability":"nonpayable"},{"type":"function","name":"providerName","inputs":[],"outputs":[{"name":"","type":"string","internalType":"string"}],"stateMutability":"pure"},{"type":"function","name":"referralCode","inputs":[],"outputs":[{"name":"","type":"uint16","internalType":"uint16"}],"stateMutability":"view"},{"type":"function","name":"requiredLockPeriod","inputs":[],"outputs":[{"name":"","type":"uint256","internalType":"uint256"}],"stateMutability":"pure"},{"type":"function","name":"riskLevel","inputs":[],"outputs":[{"name":"","type":"uint8","internalType":"uint8"}],"stateMutability":"pure"},{"type":"function","name":"setGovernance","inputs":[{"name":"newGovernance","type":"address","internalType":"address"}],"outputs":[],"stateMutability":"nonpayable"},{"type":"function","name":"setVault","inputs":[{"name":"newVault","type":"address","internalType":"address"}],"outputs":[],"stateMutability":"nonpayable"},{"type":"function","name":"totalAssets","inputs":[],"outputs":[{"name":"","type":"uint256","internalType":"uint256"}],"stateMutability":"view"},{"type":"function","name":"unpause","inputs":[],"outputs":[],"stateMutability":"nonpayable"},{"type":"function","name":"vault","inputs":[],"outputs":[{"name":"","type":"address","internalType":"address"}],"stateMutability":"view"},{"type":"function","name":"withdraw","inputs":[{"name":"assets","type":"uint256","internalType":"uint256"},{"name":"recipient","type":"address","internalType":"address"}],"outputs":[{"name":"withdrawn","type":"uint256","internalType":"uint256"}],"stateMutability":"nonpayable"},{"type":"event","name":"Deposited","inputs":[{"name":"assets","type":"uint256","indexed":false,"internalType":"uint256"},{"name":"deposited","type":"uint256","indexed":false,"internalType":"uint256"}],"anonymous":false},{"type":"event","name":"Harvested","inputs":[{"name":"harvested","type":"uint256","indexed":false,"internalType":"uint256"}],"anonymous":false},{"type":"event","name":"Paused","inputs":[],"anonymous":false},{"type":"event","name":"Unpaused","inputs":[],"anonymous":false},{"type":"event","name":"Withdrawn","inputs":[{"name":"assets","type":"uint256","indexed":false,"internalType":"uint256"},{"name":"withdrawn","type":"uint256","indexed":false,"internalType":"uint256"},{"name":"recipient","type":"address","indexed":true,"internalType":"address"}],"anonymous":false},{"type":"error","name":"SafeERC20FailedOperation","inputs":[{"name":"token","type":"address","internalType":"address"}]}],"bytecode":{"object":"0x610100604052348015610010575f5ffd5b506040516112da3803806112da83398101604081905261002f91610335565b6001600160a01b03861661008a5760405162461bcd60e51b815260206004820152601360248201527f414441505445523a207a65726f2061737365740000000000000000000000000060448201526064015b60405180910390fd5b6001600160a01b0385166100d55760405162461bcd60e51b8152602060048201526012602482015271105110541511548e881e995c9bc81c1bdbdb60721b6044820152606401610081565b6001600160a01b03841661012b5760405162461bcd60e51b815260206004820152601460248201527f414441505445523a207a65726f2061546f6b656e0000000000000000000000006044820152606401610081565b6001600160a01b0383166101815760405162461bcd60e51b815260206004820152601360248201527f414441505445523a207a65726f207661756c74000000000000000000000000006044820152606401610081565b6001600160a01b0382166101d75760405162461bcd60e51b815260206004820152601860248201527f414441505445523a207a65726f20676f7665726e616e636500000000000000006044820152606401610081565b6001600160a01b03868116608081905286821660a05285821660c0525f80546001600160a01b031990811687851617909155600180549091169285169290921790915561ffff821660e05261022e90865f19610239565b5050505050506103af565b6102458383835f6102b8565b6102b35761025683835f60016102b8565b61027e57604051635274afe760e01b81526001600160a01b0384166004820152602401610081565b61028b83838360016102b8565b6102b357604051635274afe760e01b81526001600160a01b0384166004820152602401610081565b505050565b60405163095ea7b360e01b5f8181526001600160a01b038616600452602485905291602083604481808b5af1925060015f5114831661030e578383151615610302573d5f823e3d81fd5b5f873b113d1516831692505b60405250949350505050565b80516001600160a01b0381168114610330575f5ffd5b919050565b5f5f5f5f5f5f60c0878903121561034a575f5ffd5b6103538761031a565b95506103616020880161031a565b945061036f6040880161031a565b935061037d6060880161031a565b925061038b6080880161031a565b915060a087015161ffff811681146103a1575f5ffd5b809150509295509295509295565b60805160a05160c05160e051610ec061041a5f395f81816102f60152610a0e01525f818161029a015261057201525f8181610273015281816104a401528181610a380152610b1201525f81816101f40152818161046d015281816109d90152610ae80152610ec05ff3fe608060405234801561000f575f5ffd5b5060043610610130575f3560e01c80636817031b116100b4578063ab033ea911610079578063ab033ea9146102cb578063b6b55f25146102de578063d8b6d252146102f1578063f19993d71461032b578063f72c079114610333578063fbfa77cf14610353575f5ffd5b80636817031b146102535780638456cb5914610266578063a03e4bc31461026e578063a0c1f15e14610295578063a62b33be146102bc575f5ffd5b806335b60054116100fa57806335b60054146101e957806338d52e0f146101ef5780633f4ba83a1461022e5780634641257d146102385780635aa6e67514610240575f5ffd5b8062dad7d414610134578062f714ce1461016957806301e1d1141461018a57806306fdde031461019257806322f3e2d4146101cb575b5f5ffd5b6040805180820190915260078152664161766520563360c81b60208201525b6040516101609190610baa565b60405180910390f35b61017c610177366004610bf6565b610365565b604051908152602001610160565b61017c61055b565b6040805180820190915260208082527f5349585820537461626c65205969656c64202d2041617665205633205553444390820152610153565b600154600160a01b900460ff16156040519015158152602001610160565b5f61017c565b6102167f000000000000000000000000000000000000000000000000000000000000000081565b6040516001600160a01b039091168152602001610160565b6102366105e8565b005b61017c610679565b600154610216906001600160a01b031681565b610236610261366004610c24565b6106b8565b610236610779565b6102167f000000000000000000000000000000000000000000000000000000000000000081565b6102167f000000000000000000000000000000000000000000000000000000000000000081565b60405160028152602001610160565b6102366102d9366004610c24565b61081c565b61017c6102ec366004610c46565b6108e0565b6103187f000000000000000000000000000000000000000000000000000000000000000081565b60405161ffff9091168152602001610160565b61017c610ad1565b6040805180820190915260048152634465466960e01b6020820152610153565b5f54610216906001600160a01b031681565b5f80546001600160a01b031633146103ba5760405162461bcd60e51b8152602060048201526013602482015272105110541511548e881bdb9b1e481d985d5b1d606a1b60448201526064015b60405180910390fd5b5f83116104005760405162461bcd60e51b8152602060048201526014602482015273105110541511548e881e995c9bc8185b5bdd5b9d60621b60448201526064016103b1565b6001600160a01b0382166104565760405162461bcd60e51b815260206004820152601760248201527f414441505445523a207a65726f20726563697069656e7400000000000000000060448201526064016103b1565b604051631a4ca37b60e21b81526001600160a01b037f0000000000000000000000000000000000000000000000000000000000000000811660048301526024820185905283811660448301527f000000000000000000000000000000000000000000000000000000000000000016906369328dec906064016020604051808303815f875af11580156104ea573d5f5f3e3d5ffd5b505050506040513d601f19601f8201168201806040525081019061050e9190610c5d565b60408051858152602081018390529192506001600160a01b038416917f02ffa641367f5b897c0f8be81bce51f2ef055b4113d7a1e4fd082feea749bf52910160405180910390a292915050565b6040516370a0823160e01b81523060048201525f907f00000000000000000000000000000000000000000000000000000000000000006001600160a01b0316906370a0823190602401602060405180830381865afa1580156105bf573d5f5f3e3d5ffd5b505050506040513d601f19601f820116820180604052508101906105e39190610c5d565b905090565b6001546001600160a01b031633146106425760405162461bcd60e51b815260206004820152601860248201527f414441505445523a206f6e6c7920676f7665726e616e6365000000000000000060448201526064016103b1565b6001805460ff60a01b191690556040517fa45f47fdea8a1efdd9029a5691c7f759c32b7c698632b563573e155625d16933905f90a1565b5f7f8e55ccfc9778ff8eba1646d765cf1982537ce0f9257054a17b48aad7452501835f6040516106ab91815260200190565b60405180910390a1505f90565b6001546001600160a01b0316331461070c5760405162461bcd60e51b8152602060048201526017602482015276414441505445523a206e6f7420676f7665726e616e636560481b60448201526064016103b1565b6001600160a01b0381166107585760405162461bcd60e51b8152602060048201526013602482015272105110541511548e881e995c9bc81d985d5b1d606a1b60448201526064016103b1565b5f80546001600160a01b0319166001600160a01b0392909216919091179055565b6001546001600160a01b031633148061079b57505f546001600160a01b031633145b6107df5760405162461bcd60e51b8152602060048201526015602482015274105110541511548e881d5b985d5d1a1bdc9a5e9959605a1b60448201526064016103b1565b6001805460ff60a01b1916600160a01b1790556040517f9e87fac88ff661f02d44f95383c817fece4bce600a3dab7a54406878b965e752905f90a1565b6001546001600160a01b031633146108705760405162461bcd60e51b8152602060048201526017602482015276414441505445523a206e6f7420676f7665726e616e636560481b60448201526064016103b1565b6001600160a01b0381166108be5760405162461bcd60e51b8152602060048201526015602482015274414441505445523a207a65726f206164647265737360581b60448201526064016103b1565b600180546001600160a01b0319166001600160a01b0392909216919091179055565b5f80546001600160a01b031633146109305760405162461bcd60e51b8152602060048201526013602482015272105110541511548e881bdb9b1e481d985d5b1d606a1b60448201526064016103b1565b600154600160a01b900460ff161561097c5760405162461bcd60e51b815260206004820152600f60248201526e105110541511548e881c185d5cd959608a1b60448201526064016103b1565b5f82116109c25760405162461bcd60e51b8152602060048201526014602482015273105110541511548e881e995c9bc8185b5bdd5b9d60621b60448201526064016103b1565b60405163617ba03760e01b81526001600160a01b037f000000000000000000000000000000000000000000000000000000000000000081166004830152602482018490523060448301527f000000000000000000000000000000000000000000000000000000000000000061ffff1660648301527f0000000000000000000000000000000000000000000000000000000000000000169063617ba037906084015f604051808303815f87803b158015610a79575f5ffd5b505af1158015610a8b573d5f5f3e3d5ffd5b505060408051858152602081018690528594507f06da3309189fa49284f335d2c2bcb4cb0b8ad2a59ad92a9bdebeeb8f1ceba511935001905060405180910390a1919050565b6040516335ea6a7560e01b81526001600160a01b037f0000000000000000000000000000000000000000000000000000000000000000811660048301525f917f0000000000000000000000000000000000000000000000000000000000000000909116906335ea6a75906024016101e060405180830381865afa925050508015610b78575060408051601f3d908101601f19168201909252610b7591810190610d41565b60015b610b8157505f90565b69152d02c7e14af680000081604001516001600160801b0316610ba49190610e6b565b91505090565b602081525f82518060208401528060208501604085015e5f604082850101526040601f19601f83011684010191505092915050565b6001600160a01b0381168114610bf3575f5ffd5b50565b5f5f60408385031215610c07575f5ffd5b823591506020830135610c1981610bdf565b809150509250929050565b5f60208284031215610c34575f5ffd5b8135610c3f81610bdf565b9392505050565b5f60208284031215610c56575f5ffd5b5035919050565b5f60208284031215610c6d575f5ffd5b5051919050565b6040516101e0810167ffffffffffffffff81118282101715610ca457634e487b7160e01b5f52604160045260245ffd5b60405290565b5f60208284031215610cba575f5ffd5b6040516020810167ffffffffffffffff81118282101715610ce957634e487b7160e01b5f52604160045260245ffd5b6040529151825250919050565b80516001600160801b0381168114610d0c575f5ffd5b919050565b805164ffffffffff81168114610d0c575f5ffd5b805161ffff81168114610d0c575f5ffd5b8051610d0c81610bdf565b5f6101e0828403128015610d53575f5ffd5b50610d5c610c74565b610d668484610caa565b8152610d7460208401610cf6565b6020820152610d8560408401610cf6565b6040820152610d9660608401610cf6565b6060820152610da760808401610cf6565b6080820152610db860a08401610cf6565b60a0820152610dc960c08401610d11565b60c0820152610dda60e08401610d25565b60e0820152610dec6101008401610d36565b610100820152610dff6101208401610d36565b610120820152610e126101408401610d36565b610140820152610e256101608401610d36565b610160820152610e386101808401610cf6565b610180820152610e4b6101a08401610cf6565b6101a0820152610e5e6101c08401610cf6565b6101c08201529392505050565b5f82610e8557634e487b7160e01b5f52601260045260245ffd5b50049056fea2646970667358221220dc1133d639e7007fe9d6c9f1aa5452f25deb42fe6a7db27a23435469d4900b5d64736f6c634300081c0033","linkReferences":{}},"methodIdentifiers":{"aToken()":"a0c1f15e","aavePool()":"a03e4bc3","adapterType()":"f72c0791","asset()":"38d52e0f","deposit(uint256)":"b6b55f25","estimatedAPY()":"f19993d7","governance()":"5aa6e675","harvest()":"4641257d","isActive()":"22f3e2d4","name()":"06fdde03","pause()":"8456cb59","providerName()":"00dad7d4","referralCode()":"d8b6d252","requiredLockPeriod()":"35b60054","riskLevel()":"a62b33be","setGovernance(address)":"ab033ea9","setVault(address)":"6817031b","totalAssets()":"01e1d114","unpause()":"3f4ba83a","vault()":"fbfa77cf","withdraw(uint256,address)":"00f714ce"},"id":38}