{"abi":[{"type":"constructor","inputs":[{"name":"governance_","type":"address","internalType":"address"}],"stateMutability":"nonpayable"},{"type":"function","name":"acceptGovernance","inputs":[],"outputs":[],"stateMutability":"nonpayable"},{"type":"function","name":"disableAdapter","inputs":[{"name":"adapter","type":"address","internalType":"address"}],"outputs":[],"stateMutability":"nonpayable"},{"type":"function","name":"getActiveAdapters","inputs":[],"outputs":[{"name":"","type":"address[]","internalType":"address[]"}],"stateMutability":"view"},{"type":"function","name":"getAdapterInfo","inputs":[{"name":"adapter","type":"address","internalType":"address"}],"outputs":[{"name":"","type":"tuple","internalType":"struct IAdapterRegistry.AdapterInfo","components":[{"name":"adapter","type":"address","internalType":"address"},{"name":"status","type":"uint8","internalType":"enum IAdapterRegistry.Status"},{"name":"adapterType","type":"string","internalType":"string"},{"name":"providerName","type":"string","internalType":"string"},{"name":"registeredAt","type":"uint256","internalType":"uint256"}]}],"stateMutability":"view"},{"type":"function","name":"governance","inputs":[],"outputs":[{"name":"","type":"address","internalType":"address"}],"stateMutability":"view"},{"type":"function","name":"isActive","inputs":[{"name":"adapter","type":"address","internalType":"address"}],"outputs":[{"name":"","type":"bool","internalType":"bool"}],"stateMutability":"view"},{"type":"function","name":"pendingGovernance","inputs":[],"outputs":[{"name":"","type":"address","internalType":"address"}],"stateMutability":"view"},{"type":"function","name":"proposeGovernance","inputs":[{"name":"newGovernance","type":"address","internalType":"address"}],"outputs":[],"stateMutability":"nonpayable"},{"type":"function","name":"registerAdapter","inputs":[{"name":"adapter","type":"address","internalType":"address"},{"name":"adapterType_","type":"string","internalType":"string"},{"name":"providerName_","type":"string","internalType":"string"}],"outputs":[],"stateMutability":"nonpayable"},{"type":"event","name":"AdapterDisabled","inputs":[{"name":"adapter","type":"address","indexed":true,"internalType":"address"}],"anonymous":false},{"type":"event","name":"AdapterRegistered","inputs":[{"name":"adapter","type":"address","indexed":true,"internalType":"address"},{"name":"adapterType","type":"string","indexed":false,"internalType":"string"},{"name":"providerName","type":"string","indexed":false,"internalType":"string"}],"anonymous":false}],"bytecode":{"object":"0x6080604052348015600e575f5ffd5b50604051610f29380380610f29833981016040819052602b9160a7565b6001600160a01b03811660845760405162461bcd60e51b815260206004820152601960248201527f52454749535452593a207a65726f20676f7665726e616e636500000000000000604482015260640160405180910390fd5b5f80546001600160a01b0319166001600160a01b039290921691909117905560d2565b5f6020828403121560b6575f5ffd5b81516001600160a01b038116811460cb575f5ffd5b9392505050565b610e4a806100df5f395ff3fe608060405234801561000f575f5ffd5b5060043610610090575f3560e01c8063b7ef038611610063578063b7ef038614610103578063c373a08e14610123578063f39c38a014610136578063fa27fa4a14610149578063facb34e71461015c575f5ffd5b8063238efcbc1461009457806323ad623b1461009e5780635aa6e675146100b15780639f8a13d7146100e0575b5f5ffd5b61009c610171565b005b61009c6100ac3660046109fe565b6101ee565b5f546100c3906001600160a01b031681565b6040516001600160a01b0390911681526020015b60405180910390f35b6100f36100ee3660046109fe565b6102e3565b60405190151581526020016100d7565b6101166101113660046109fe565b610322565b6040516100d79190610a60565b61009c6101313660046109fe565b6104e6565b6001546100c3906001600160a01b031681565b61009c610157366004610b2e565b610580565b61016461083a565b6040516100d79190610bae565b6001546001600160a01b031633146101c85760405162461bcd60e51b815260206004820152601560248201527452454749535452593a206e6f742070656e64696e6760581b60448201526064015b60405180910390fd5b600180545f80546001600160a01b03199081166001600160a01b03841617909155169055565b5f546001600160a01b031633146102175760405162461bcd60e51b81526004016101bf90610bf9565b60016001600160a01b0382165f90815260026020819052604090912054600160a01b900460ff169081111561024e5761024e610a1e565b146102925760405162461bcd60e51b815260206004820152601460248201527352454749535452593a206e6f742061637469766560601b60448201526064016101bf565b6001600160a01b0381165f81815260026020526040808220805460ff60a01b1916600160a11b179055517fc9dac7c0ef53b7e010194ddaddccf2725339391dc0c712d56bfe361e5aee6e659190a250565b5f60016001600160a01b0383165f90815260026020819052604090912054600160a01b900460ff169081111561031b5761031b610a1e565b1492915050565b6103536040805160a081019091525f8082526020820190815260200160608152602001606081526020015f81525090565b6001600160a01b038281165f90815260026020818152604092839020835160a0810190945280549485168452929390840191600160a01b90910460ff16908111156103a0576103a0610a1e565b60028111156103b1576103b1610a1e565b81526020016001820180546103c590610c30565b80601f01602080910402602001604051908101604052809291908181526020018280546103f190610c30565b801561043c5780601f106104135761010080835404028352916020019161043c565b820191905f5260205f20905b81548152906001019060200180831161041f57829003601f168201915b5050505050815260200160028201805461045590610c30565b80601f016020809104026020016040519081016040528092919081815260200182805461048190610c30565b80156104cc5780601f106104a3576101008083540402835291602001916104cc565b820191905f5260205f20905b8154815290600101906020018083116104af57829003601f168201915b505050505081526020016003820154815250509050919050565b5f546001600160a01b0316331461050f5760405162461bcd60e51b81526004016101bf90610bf9565b6001600160a01b03811661055e5760405162461bcd60e51b815260206004820152601660248201527552454749535452593a207a65726f206164647265737360501b60448201526064016101bf565b600180546001600160a01b0319166001600160a01b0392909216919091179055565b5f546001600160a01b031633146105a95760405162461bcd60e51b81526004016101bf90610bf9565b6001600160a01b0385166105f85760405162461bcd60e51b815260206004820152601660248201527552454749535452593a207a65726f206164647265737360501b60448201526064016101bf565b6001600160a01b0385165f908152600260208190526040822054600160a01b900460ff169081111561062c5761062c610a1e565b146106795760405162461bcd60e51b815260206004820152601c60248201527f52454749535452593a20616c726561647920726567697374657265640000000060448201526064016101bf565b6040805160a081019091526001600160a01b0386168152602081016001815260200185858080601f0160208091040260200160405190810160405280939291908181526020018383808284375f92019190915250505090825250604080516020601f8601819004810282018101909252848152918101919085908590819084018382808284375f920182905250938552505042602093840152506001600160a01b038089168252600280845260409092208451815492166001600160a01b0319831681178255938501519093909284926001600160a81b03191690911790600160a01b90849081111561076e5761076e610a1e565b0217905550604082015160018201906107879082610cc8565b506060820151600282019061079c9082610cc8565b506080919091015160039182015580546001810182555f919091527fc2575a0e9e593c00f959f8c92f12db2869c3395a3b0502d05e2516446f71f85b0180546001600160a01b0319166001600160a01b0387169081179091556040517f45fd8552fd6fefd68f48e6a0814fe2f97aa503a0f99d43b844b70bf655cdeea19061082b908790879087908790610dab565b60405180910390a25050505050565b60605f805b6003548110156108bc57600160025f6003848154811061086157610861610ddc565b5f9182526020808320909101546001600160a01b0316835282019290925260400190205460ff600160a01b9091041660028111156108a1576108a1610a1e565b036108b457816108b081610df0565b9250505b60010161083f565b505f8167ffffffffffffffff8111156108d7576108d7610c68565b604051908082528060200260200182016040528015610900578160200160208202803683370190505b5090505f805b6003548110156109da57600160025f6003848154811061092857610928610ddc565b5f9182526020808320909101546001600160a01b0316835282019290925260400190205460ff600160a01b90910416600281111561096857610968610a1e565b036109d2576003818154811061098057610980610ddc565b5f918252602090912001546001600160a01b0316838361099f81610df0565b9450815181106109b1576109b1610ddc565b60200260200101906001600160a01b031690816001600160a01b0316815250505b600101610906565b50909392505050565b80356001600160a01b03811681146109f9575f5ffd5b919050565b5f60208284031215610a0e575f5ffd5b610a17826109e3565b9392505050565b634e487b7160e01b5f52602160045260245ffd5b5f81518084528060208401602086015e5f602082860101526020601f19601f83011685010191505092915050565b602080825282516001600160a01b0316828201528201515f9060038110610a9557634e487b7160e01b5f52602160045260245ffd5b80604084015250604083015160a06060840152610ab560c0840182610a32565b90506060840151601f19848303016080850152610ad28282610a32565b915050608084015160a08401528091505092915050565b5f5f83601f840112610af9575f5ffd5b50813567ffffffffffffffff811115610b10575f5ffd5b602083019150836020828501011115610b27575f5ffd5b9250929050565b5f5f5f5f5f60608688031215610b42575f5ffd5b610b4b866109e3565b9450602086013567ffffffffffffffff811115610b66575f5ffd5b610b7288828901610ae9565b909550935050604086013567ffffffffffffffff811115610b91575f5ffd5b610b9d88828901610ae9565b969995985093965092949392505050565b602080825282518282018190525f918401906040840190835b81811015610bee5783516001600160a01b0316835260209384019390920191600101610bc7565b509095945050505050565b60208082526018908201527f52454749535452593a206e6f7420676f7665726e616e63650000000000000000604082015260600190565b600181811c90821680610c4457607f821691505b602082108103610c6257634e487b7160e01b5f52602260045260245ffd5b50919050565b634e487b7160e01b5f52604160045260245ffd5b601f821115610cc357805f5260205f20601f840160051c81016020851015610ca15750805b601f840160051c820191505b81811015610cc0575f8155600101610cad565b50505b505050565b815167ffffffffffffffff811115610ce257610ce2610c68565b610cf681610cf08454610c30565b84610c7c565b6020601f821160018114610d28575f8315610d115750848201515b5f19600385901b1c1916600184901b178455610cc0565b5f84815260208120601f198516915b82811015610d575787850151825560209485019460019092019101610d37565b5084821015610d7457868401515f19600387901b60f8161c191681555b50505050600190811b01905550565b81835281816020850137505f828201602090810191909152601f909101601f19169091010190565b604081525f610dbe604083018688610d83565b8281036020840152610dd1818587610d83565b979650505050505050565b634e487b7160e01b5f52603260045260245ffd5b5f60018201610e0d57634e487b7160e01b5f52601160045260245ffd5b506001019056fea2646970667358221220ce7c903c3fba7257b5b8c445874594b57c50b73fe9cf3dfb85205ef38aea254664736f6c634300081c0033","linkReferences":{}},"methodIdentifiers":{"acceptGovernance()":"238efcbc","disableAdapter(address)":"23ad623b","getActiveAdapters()":"facb34e7","getAdapterInfo(address)":"b7ef0386","governance()":"5aa6e675","isActive(address)":"9f8a13d7","pendingGovernance()":"f39c38a0","proposeGovernance(address)":"c373a08e","registerAdapter(address,string,string)":"fa27fa4a"},"id":39}